{
  "_format": "hh-sol-artifact-1",
  "contractName": "ElectionPortal",
  "sourceName": "contracts/ElectionPortal.sol",
  "abi": [
    {
      "inputs": [],
      "stateMutability": "nonpayable",
      "type": "constructor"
    },
    {
      "inputs": [
        {
          "internalType": "string",
          "name": "_name",
          "type": "string"
        },
        {
          "internalType": "string",
          "name": "_agendas",
          "type": "string"
        },
        {
          "internalType": "string",
          "name": "_imageLink",
          "type": "string"
        },
        {
          "internalType": "string",
          "name": "_punchline",
          "type": "string"
        }
      ],
      "name": "addCandidate",
      "outputs": [],
      "stateMutability": "payable",
      "type": "function"
    },
    {
      "inputs": [
        {
          "internalType": "string",
          "name": "_id",
          "type": "string"
        },
        {
          "internalType": "uint256",
          "name": "_endtime",
          "type": "uint256"
        },
        {
          "internalType": "string",
          "name": "_position",
          "type": "string"
        }
      ],
      "name": "addElection",
      "outputs": [],
      "stateMutability": "payable",
      "type": "function"
    },
    {
      "inputs": [],
      "name": "deleteCandidatesList",
      "outputs": [],
      "stateMutability": "payable",
      "type": "function"
    },
    {
      "inputs": [],
      "name": "deleteElections",
      "outputs": [],
      "stateMutability": "payable",
      "type": "function"
    },
    {
      "inputs": [
        {
          "internalType": "uint256",
          "name": "",
          "type": "uint256"
        }
      ],
      "name": "electionCandidates",
      "outputs": [
        {
          "internalType": "uint256",
          "name": "id",
          "type": "uint256"
        },
        {
          "internalType": "string",
          "name": "name",
          "type": "string"
        },
        {
          "internalType": "string",
          "name": "agendas",
          "type": "string"
        },
        {
          "internalType": "string",
          "name": "punchline",
          "type": "string"
        },
        {
          "internalType": "string",
          "name": "imageLink",
          "type": "string"
        },
        {
          "internalType": "uint256",
          "name": "votes",
          "type": "uint256"
        }
      ],
      "stateMutability": "view",
      "type": "function"
    },
    {
      "inputs": [],
      "name": "electionCount",
      "outputs": [
        {
          "internalType": "uint256",
          "name": "",
          "type": "uint256"
        }
      ],
      "stateMutability": "view",
      "type": "function"
    },
    {
      "inputs": [
        {
          "internalType": "uint256",
          "name": "",
          "type": "uint256"
        }
      ],
      "name": "elections",
      "outputs": [
        {
          "internalType": "string",
          "name": "id",
          "type": "string"
        },
        {
          "internalType": "string",
          "name": "position",
          "type": "string"
        },
        {
          "internalType": "uint256",
          "name": "endtime",
          "type": "uint256"
        },
        {
          "internalType": "uint256",
          "name": "votes",
          "type": "uint256"
        },
        {
          "internalType": "uint256",
          "name": "totalCandidates",
          "type": "uint256"
        }
      ],
      "stateMutability": "view",
      "type": "function"
    },
    {
      "inputs": [
        {
          "internalType": "uint256",
          "name": "candidateID",
          "type": "uint256"
        },
        {
          "internalType": "string",
          "name": "electionID",
          "type": "string"
        }
      ],
      "name": "getCandidateDetails",
      "outputs": [
        {
          "internalType": "string[4]",
          "name": "",
          "type": "string[4]"
        }
      ],
      "stateMutability": "view",
      "type": "function"
    },
    {
      "inputs": [
        {
          "internalType": "string",
          "name": "electionID",
          "type": "string"
        }
      ],
      "name": "getElectionCandidatesNames",
      "outputs": [
        {
          "internalType": "string[]",
          "name": "",
          "type": "string[]"
        }
      ],
      "stateMutability": "view",
      "type": "function"
    },
    {
      "inputs": [
        {
          "internalType": "string",
          "name": "electionID",
          "type": "string"
        }
      ],
      "name": "getElectionCandidatesVotes",
      "outputs": [
        {
          "internalType": "uint256[]",
          "name": "",
          "type": "uint256[]"
        }
      ],
      "stateMutability": "view",
      "type": "function"
    },
    {
      "inputs": [],
      "name": "getElectionInfo",
      "outputs": [
        {
          "components": [
            {
              "internalType": "string",
              "name": "id",
              "type": "string"
            },
            {
              "internalType": "string",
              "name": "position",
              "type": "string"
            },
            {
              "internalType": "uint256",
              "name": "endtime",
              "type": "uint256"
            },
            {
              "internalType": "uint256",
              "name": "votes",
              "type": "uint256"
            },
            {
              "internalType": "uint256",
              "name": "totalCandidates",
              "type": "uint256"
            }
          ],
          "internalType": "struct ElectionPortal.ElectionInfo[]",
          "name": "",
          "type": "tuple[]"
        }
      ],
      "stateMutability": "view",
      "type": "function"
    },
    {
      "inputs": [
        {
          "internalType": "string",
          "name": "electionID",
          "type": "string"
        }
      ],
      "name": "getElectionWinner",
      "outputs": [
        {
          "internalType": "string[]",
          "name": "",
          "type": "string[]"
        }
      ],
      "stateMutability": "view",
      "type": "function"
    },
    {
      "inputs": [
        {
          "internalType": "string",
          "name": "electionID",
          "type": "string"
        },
        {
          "internalType": "uint256",
          "name": "candidateID",
          "type": "uint256"
        }
      ],
      "name": "incrVote",
      "outputs": [],
      "stateMutability": "payable",
      "type": "function"
    }
  ],
  "bytecode": "0x6080604052600060035534801561001557600080fd5b50336000806101000a81548173ffffffffffffffffffffffffffffffffffffffff021916908373ffffffffffffffffffffffffffffffffffffffff160217905550613ae2806100656000396000f3fe6080604052600436106100c25760003560e01c8063689aa33d1161007f578063997d283011610059578063997d283014610236578063b43bed4814610261578063d09aaa5b1461029e578063e64ae4bd146102ba576100c2565b8063689aa33d146101c4578063817f85761461020157806386852dca1461020b576100c2565b80632369b70e146100c75780633358139c1461010457806342b03cc9146101205780634b7d7bd51461013c57806355695e89146101795780635e6fef0114610183575b600080fd5b3480156100d357600080fd5b506100ee60048036038101906100e99190612ebd565b6102fc565b6040516100fb9190613549565b60405180910390f35b61011e60048036038101906101199190613015565b61059d565b005b61013a60048036038101906101359190612efe565b610a17565b005b34801561014857600080fd5b50610163600480360381019061015e9190612ebd565b610ca9565b6040516101709190613505565b60405180910390f35b61018161101b565b005b34801561018f57600080fd5b506101aa60048036038101906101a59190613094565b611160565b6040516101bb95949392919061356b565b60405180910390f35b3480156101d057600080fd5b506101eb60048036038101906101e691906130bd565b6112b6565b6040516101f891906134e3565b60405180910390f35b6102096117b6565b005b34801561021757600080fd5b506102206118eb565b60405161022d9190613527565b60405180910390f35b34801561024257600080fd5b5061024b611d21565b604051610258919061360c565b60405180910390f35b34801561026d57600080fd5b5061028860048036038101906102839190612ebd565b611d27565b6040516102959190613505565b60405180910390f35b6102b860048036038101906102b39190612fc1565b6126a7565b005b3480156102c657600080fd5b506102e160048036038101906102dc9190613094565b612861565b6040516102f396959493929190613627565b60405180910390f35b606060008054906101000a900473ffffffffffffffffffffffffffffffffffffffff1673ffffffffffffffffffffffffffffffffffffffff163373ffffffffffffffffffffffffffffffffffffffff161461038c576040517f08c379a0000000000000000000000000000000000000000000000000000000008152600401610383906135ec565b60405180910390fd5b600060016002846040516103a091906134cc565b9081526020016040518091039020546103b9919061389c565b905060008110156103ff576040517f08c379a00000000000000000000000000000000000000000000000000000000081526004016103f6906135cc565b60405180910390fd5b60006001828154811061043b577f4e487b7100000000000000000000000000000000000000000000000000000000600052603260045260246000fd5b906000526020600020906006020160050154905060008167ffffffffffffffff811115610491577f4e487b7100000000000000000000000000000000000000000000000000000000600052604160045260246000fd5b6040519080825280602002602001820160405280156104bf5781602001602082028036833780820191505090505b50905060005b828110156105915760018481548110610507577f4e487b7100000000000000000000000000000000000000000000000000000000600052603260045260246000fd5b906000526020600020906006020160010160006001836105279190613815565b815260200190815260200160002060050154828281518110610572577f4e487b7100000000000000000000000000000000000000000000000000000000600052603260045260246000fd5b60200260200101818152505080806105899061394e565b9150506104c5565b50809350505050919050565b60008054906101000a900473ffffffffffffffffffffffffffffffffffffffff1673ffffffffffffffffffffffffffffffffffffffff163373ffffffffffffffffffffffffffffffffffffffff161461062b576040517f08c379a0000000000000000000000000000000000000000000000000000000008152600401610622906135ec565b60405180910390fd5b600180816001815401808255809150500390600052602060002090505082600160035481548110610685577f4e487b7100000000000000000000000000000000000000000000000000000000600052603260045260246000fd5b906000526020600020906006020160000190805190602001906106a9929190612c7a565b5060005b60048054905081101561081657600481815481106106f4577f4e487b7100000000000000000000000000000000000000000000000000000000600052603260045260246000fd5b906000526020600020906006020160016003548154811061073e577f4e487b7100000000000000000000000000000000000000000000000000000000600052603260045260246000fd5b9060005260206000209060060201600101600060018461075e9190613815565b815260200190815260200160002060008201548160000155600182018160010190805461078a9061391c565b610795929190612d00565b5060028201816002019080546107aa9061391c565b6107b5929190612d00565b5060038201816003019080546107ca9061391c565b6107d5929190612d00565b5060048201816004019080546107ea9061391c565b6107f5929190612d00565b5060058201548160050155905050808061080e9061394e565b9150506106ad565b5080600160035481548110610854577f4e487b7100000000000000000000000000000000000000000000000000000000600052603260045260246000fd5b90600052602060002090600602016002019080519060200190610878929190612c7a565b50816001600354815481106108b6577f4e487b7100000000000000000000000000000000000000000000000000000000600052603260045260246000fd5b90600052602060002090600602016003018190555060048054905060016003548154811061090d577f4e487b7100000000000000000000000000000000000000000000000000000000600052603260045260246000fd5b9060005260206000209060060201600501819055506003600081546109319061394e565b9190508190555060035460028460405161094b91906134cc565b9081526020016040518091039020819055505b60006004805490501115610a125760048054806109a4577f4e487b7100000000000000000000000000000000000000000000000000000000600052603160045260246000fd5b60019003818190600052602060002090600602016000808201600090556001820160006109d19190612d8d565b6002820160006109e19190612d8d565b6003820160006109f19190612d8d565b600482016000610a019190612d8d565b60058201600090555050905561095e565b505050565b60008054906101000a900473ffffffffffffffffffffffffffffffffffffffff1673ffffffffffffffffffffffffffffffffffffffff163373ffffffffffffffffffffffffffffffffffffffff1614610aa5576040517f08c379a0000000000000000000000000000000000000000000000000000000008152600401610a9c906135ec565b60405180910390fd5b6000600480549050905060046001816001815401808255809150500390600052602060002090505060048054905060048281548110610b0d577f4e487b7100000000000000000000000000000000000000000000000000000000600052603260045260246000fd5b9060005260206000209060060201600001819055508460048281548110610b5d577f4e487b7100000000000000000000000000000000000000000000000000000000600052603260045260246000fd5b90600052602060002090600602016001019080519060200190610b81929190612c7a565b508360048281548110610bbd577f4e487b7100000000000000000000000000000000000000000000000000000000600052603260045260246000fd5b90600052602060002090600602016002019080519060200190610be1929190612c7a565b508260048281548110610c1d577f4e487b7100000000000000000000000000000000000000000000000000000000600052603260045260246000fd5b90600052602060002090600602016004019080519060200190610c41929190612c7a565b508160048281548110610c7d577f4e487b7100000000000000000000000000000000000000000000000000000000600052603260045260246000fd5b90600052602060002090600602016003019080519060200190610ca1929190612c7a565b505050505050565b606060008054906101000a900473ffffffffffffffffffffffffffffffffffffffff1673ffffffffffffffffffffffffffffffffffffffff163373ffffffffffffffffffffffffffffffffffffffff1614610d39576040517f08c379a0000000000000000000000000000000000000000000000000000000008152600401610d30906135ec565b60405180910390fd5b60006001600284604051610d4d91906134cc565b908152602001604051809103902054610d66919061389c565b90506000811015610dac576040517f08c379a0000000000000000000000000000000000000000000000000000000008152600401610da3906135cc565b60405180910390fd5b600060018281548110610de8577f4e487b7100000000000000000000000000000000000000000000000000000000600052603260045260246000fd5b90600052602060002090600602016005015467ffffffffffffffff811115610e39577f4e487b7100000000000000000000000000000000000000000000000000000000600052604160045260246000fd5b604051908082528060200260200182016040528015610e6c57816020015b6060815260200190600190039081610e575790505b50905060005b60018381548110610eac577f4e487b7100000000000000000000000000000000000000000000000000000000600052603260045260246000fd5b9060005260206000209060060201600501548110156110105760018381548110610eff577f4e487b7100000000000000000000000000000000000000000000000000000000600052603260045260246000fd5b90600052602060002090600602016001016000600183610f1f9190613815565b81526020019081526020016000206001018054610f3b9061391c565b80601f0160208091040260200160405190810160405280929190818152602001828054610f679061391c565b8015610fb45780601f10610f8957610100808354040283529160200191610fb4565b820191906000526020600020905b815481529060010190602001808311610f9757829003601f168201915b5050505050828281518110610ff2577f4e487b7100000000000000000000000000000000000000000000000000000000600052603260045260246000fd5b602002602001018190525080806110089061394e565b915050610e72565b508092505050919050565b60008054906101000a900473ffffffffffffffffffffffffffffffffffffffff1673ffffffffffffffffffffffffffffffffffffffff163373ffffffffffffffffffffffffffffffffffffffff16146110a9576040517f08c379a00000000000000000000000000000000000000000000000000000000081526004016110a0906135ec565b60405180910390fd5b5b6000600480549050111561115e5760048054806110f0577f4e487b7100000000000000000000000000000000000000000000000000000000600052603160045260246000fd5b600190038181906000526020600020906006020160008082016000905560018201600061111d9190612d8d565b60028201600061112d9190612d8d565b60038201600061113d9190612d8d565b60048201600061114d9190612d8d565b6005820160009055505090556110aa565b565b6001818154811061117057600080fd5b90600052602060002090600602016000915090508060000180546111939061391c565b80601f01602080910402602001604051908101604052809291908181526020018280546111bf9061391c565b801561120c5780601f106111e15761010080835404028352916020019161120c565b820191906000526020600020905b8154815290600101906020018083116111ef57829003601f168201915b5050505050908060020180546112219061391c565b80601f016020809104026020016040519081016040528092919081815260200182805461124d9061391c565b801561129a5780601f1061126f5761010080835404028352916020019161129a565b820191906000526020600020905b81548152906001019060200180831161127d57829003601f168201915b5050505050908060030154908060040154908060050154905085565b6112be612dcd565b60008054906101000a900473ffffffffffffffffffffffffffffffffffffffff1673ffffffffffffffffffffffffffffffffffffffff163373ffffffffffffffffffffffffffffffffffffffff161461134c576040517f08c379a0000000000000000000000000000000000000000000000000000000008152600401611343906135ec565b60405180910390fd5b6000600160028460405161136091906134cc565b908152602001604051809103902054611379919061389c565b905060008110156113bf576040517f08c379a00000000000000000000000000000000000000000000000000000000081526004016113b6906135cc565b60405180910390fd5b6000600182815481106113fb577f4e487b7100000000000000000000000000000000000000000000000000000000600052603260045260246000fd5b906000526020600020906006020160010160008681526020019081526020016000206040518060c0016040529081600082015481526020016001820180546114429061391c565b80601f016020809104026020016040519081016040528092919081815260200182805461146e9061391c565b80156114bb5780601f10611490576101008083540402835291602001916114bb565b820191906000526020600020905b81548152906001019060200180831161149e57829003601f168201915b505050505081526020016002820180546114d49061391c565b80601f01602080910402602001604051908101604052809291908181526020018280546115009061391c565b801561154d5780601f106115225761010080835404028352916020019161154d565b820191906000526020600020905b81548152906001019060200180831161153057829003601f168201915b505050505081526020016003820180546115669061391c565b80601f01602080910402602001604051908101604052809291908181526020018280546115929061391c565b80156115df5780601f106115b4576101008083540402835291602001916115df565b820191906000526020600020905b8154815290600101906020018083116115c257829003601f168201915b505050505081526020016004820180546115f89061391c565b80601f01602080910402602001604051908101604052809291908181526020018280546116249061391c565b80156116715780601f1061164657610100808354040283529160200191611671565b820191906000526020600020905b81548152906001019060200180831161165457829003601f168201915b50505050508152602001600582015481525050905061168e612dcd565b8160200151816000600481106116cd577f4e487b7100000000000000000000000000000000000000000000000000000000600052603260045260246000fd5b6020020181905250816040015181600160048110611714577f4e487b7100000000000000000000000000000000000000000000000000000000600052603260045260246000fd5b602002018190525081606001518160026004811061175b577f4e487b7100000000000000000000000000000000000000000000000000000000600052603260045260246000fd5b60200201819052508160800151816003600481106117a2577f4e487b7100000000000000000000000000000000000000000000000000000000600052603260045260246000fd5b602002018190525080935050505092915050565b60008054906101000a900473ffffffffffffffffffffffffffffffffffffffff1673ffffffffffffffffffffffffffffffffffffffff163373ffffffffffffffffffffffffffffffffffffffff1614611844576040517f08c379a000000000000000000000000000000000000000000000000000000000815260040161183b906135ec565b60405180910390fd5b5b600060018054905011156118e157600180548061188b577f4e487b7100000000000000000000000000000000000000000000000000000000600052603160045260246000fd5b6001900381819060005260206000209060060201600080820160006118b09190612d8d565b6002820160006118c09190612d8d565b60038201600090556004820160009055600582016000905550509055611845565b6000600381905550565b606060008054906101000a900473ffffffffffffffffffffffffffffffffffffffff1673ffffffffffffffffffffffffffffffffffffffff163373ffffffffffffffffffffffffffffffffffffffff161461197b576040517f08c379a0000000000000000000000000000000000000000000000000000000008152600401611972906135ec565b60405180910390fd5b600060018054905067ffffffffffffffff8111156119c2577f4e487b7100000000000000000000000000000000000000000000000000000000600052604160045260246000fd5b6040519080825280602002602001820160405280156119fb57816020015b6119e8612df4565b8152602001906001900390816119e05790505b50905060005b600180549050811015611d195760006040518060a0016040528060018481548110611a55577f4e487b7100000000000000000000000000000000000000000000000000000000600052603260045260246000fd5b90600052602060002090600602016000018054611a719061391c565b80601f0160208091040260200160405190810160405280929190818152602001828054611a9d9061391c565b8015611aea5780601f10611abf57610100808354040283529160200191611aea565b820191906000526020600020905b815481529060010190602001808311611acd57829003601f168201915b5050505050815260200160018481548110611b2e577f4e487b7100000000000000000000000000000000000000000000000000000000600052603260045260246000fd5b90600052602060002090600602016002018054611b4a9061391c565b80601f0160208091040260200160405190810160405280929190818152602001828054611b769061391c565b8015611bc35780601f10611b9857610100808354040283529160200191611bc3565b820191906000526020600020905b815481529060010190602001808311611ba657829003601f168201915b5050505050815260200160018481548110611c07577f4e487b7100000000000000000000000000000000000000000000000000000000600052603260045260246000fd5b906000526020600020906006020160030154815260200160018481548110611c58577f4e487b7100000000000000000000000000000000000000000000000000000000600052603260045260246000fd5b906000526020600020906006020160040154815260200160018481548110611ca9577f4e487b7100000000000000000000000000000000000000000000000000000000600052603260045260246000fd5b906000526020600020906006020160050154815250905080838381518110611cfa577f4e487b7100000000000000000000000000000000000000000000000000000000600052603260045260246000fd5b6020026020010181905250508080611d119061394e565b915050611a01565b508091505090565b60035481565b606060008054906101000a900473ffffffffffffffffffffffffffffffffffffffff1673ffffffffffffffffffffffffffffffffffffffff163373ffffffffffffffffffffffffffffffffffffffff1614611db7576040517f08c379a0000000000000000000000000000000000000000000000000000000008152600401611dae906135ec565b60405180910390fd5b60006001600284604051611dcb91906134cc565b908152602001604051809103902054611de4919061389c565b90506000811015611e2a576040517f08c379a0000000000000000000000000000000000000000000000000000000008152600401611e21906135cc565b60405180910390fd5b600060018281548110611e66577f4e487b7100000000000000000000000000000000000000000000000000000000600052603260045260246000fd5b90600052602060002090600602016001016000600181526020019081526020016000206040518060c001604052908160008201548152602001600182018054611eae9061391c565b80601f0160208091040260200160405190810160405280929190818152602001828054611eda9061391c565b8015611f275780601f10611efc57610100808354040283529160200191611f27565b820191906000526020600020905b815481529060010190602001808311611f0a57829003601f168201915b50505050508152602001600282018054611f409061391c565b80601f0160208091040260200160405190810160405280929190818152602001828054611f6c9061391c565b8015611fb95780601f10611f8e57610100808354040283529160200191611fb9565b820191906000526020600020905b815481529060010190602001808311611f9c57829003601f168201915b50505050508152602001600382018054611fd29061391c565b80601f0160208091040260200160405190810160405280929190818152602001828054611ffe9061391c565b801561204b5780601f106120205761010080835404028352916020019161204b565b820191906000526020600020905b81548152906001019060200180831161202e57829003601f168201915b505050505081526020016004820180546120649061391c565b80601f01602080910402602001604051908101604052809291908181526020018280546120909061391c565b80156120dd5780601f106120b2576101008083540402835291602001916120dd565b820191906000526020600020905b8154815290600101906020018083116120c057829003601f168201915b5050505050815260200160058201548152505090506000600190505b60018381548110612133577f4e487b7100000000000000000000000000000000000000000000000000000000600052603260045260246000fd5b9060005260206000209060060201600501548110156124a85760018381548110612186577f4e487b7100000000000000000000000000000000000000000000000000000000600052603260045260246000fd5b906000526020600020906006020160010160006001836121a69190613815565b8152602001908152602001600020600501548260a00151101561249557600183815481106121fd577f4e487b7100000000000000000000000000000000000000000000000000000000600052603260045260246000fd5b9060005260206000209060060201600101600060018361221d9190613815565b81526020019081526020016000206040518060c0016040529081600082015481526020016001820180546122509061391c565b80601f016020809104026020016040519081016040528092919081815260200182805461227c9061391c565b80156122c95780601f1061229e576101008083540402835291602001916122c9565b820191906000526020600020905b8154815290600101906020018083116122ac57829003601f168201915b505050505081526020016002820180546122e29061391c565b80601f016020809104026020016040519081016040528092919081815260200182805461230e9061391c565b801561235b5780601f106123305761010080835404028352916020019161235b565b820191906000526020600020905b81548152906001019060200180831161233e57829003601f168201915b505050505081526020016003820180546123749061391c565b80601f01602080910402602001604051908101604052809291908181526020018280546123a09061391c565b80156123ed5780601f106123c2576101008083540402835291602001916123ed565b820191906000526020600020905b8154815290600101906020018083116123d057829003601f168201915b505050505081526020016004820180546124069061391c565b80601f01602080910402602001604051908101604052809291908181526020018280546124329061391c565b801561247f5780601f106124545761010080835404028352916020019161247f565b820191906000526020600020905b81548152906001019060200180831161246257829003601f168201915b5050505050815260200160058201548152505091505b80806124a09061394e565b9150506120f9565b506000600567ffffffffffffffff8111156124ec577f4e487b7100000000000000000000000000000000000000000000000000000000600052604160045260246000fd5b60405190808252806020026020018201604052801561251f57816020015b606081526020019060019003908161250a5790505b509050816020015181600081518110612561577f4e487b7100000000000000000000000000000000000000000000000000000000600052603260045260246000fd5b60200260200101819052508160400151816001815181106125ab577f4e487b7100000000000000000000000000000000000000000000000000000000600052603260045260246000fd5b60200260200101819052508160600151816002815181106125f5577f4e487b7100000000000000000000000000000000000000000000000000000000600052603260045260246000fd5b602002602001018190525081608001518160038151811061263f577f4e487b7100000000000000000000000000000000000000000000000000000000600052603260045260246000fd5b60200260200101819052506126578260a00151612acd565b81600481518110612691577f4e487b7100000000000000000000000000000000000000000000000000000000600052603260045260246000fd5b6020026020010181905250809350505050919050565b60008054906101000a900473ffffffffffffffffffffffffffffffffffffffff1673ffffffffffffffffffffffffffffffffffffffff163373ffffffffffffffffffffffffffffffffffffffff1614612735576040517f08c379a000000000000000000000000000000000000000000000000000000000815260040161272c906135ec565b60405180910390fd5b60018060028460405161274891906134cc565b908152602001604051809103902054612761919061389c565b81548110612798577f4e487b7100000000000000000000000000000000000000000000000000000000600052603260045260246000fd5b9060005260206000209060060201600101600082815260200190815260200160002060050160008154809291906127ce9061394e565b91905055506001806002846040516127e691906134cc565b9081526020016040518091039020546127ff919061389c565b81548110612836577f4e487b7100000000000000000000000000000000000000000000000000000000600052603260045260246000fd5b906000526020600020906006020160040160008154809291906128589061394e565b91905055505050565b6004818154811061287157600080fd5b906000526020600020906006020160009150905080600001549080600101805461289a9061391c565b80601f01602080910402602001604051908101604052809291908181526020018280546128c69061391c565b80156129135780601f106128e857610100808354040283529160200191612913565b820191906000526020600020905b8154815290600101906020018083116128f657829003601f168201915b5050505050908060020180546129289061391c565b80601f01602080910402602001604051908101604052809291908181526020018280546129549061391c565b80156129a15780601f10612976576101008083540402835291602001916129a1565b820191906000526020600020905b81548152906001019060200180831161298457829003601f168201915b5050505050908060030180546129b69061391c565b80601f01602080910402602001604051908101604052809291908181526020018280546129e29061391c565b8015612a2f5780601f10612a0457610100808354040283529160200191612a2f565b820191906000526020600020905b815481529060010190602001808311612a1257829003601f168201915b505050505090806004018054612a449061391c565b80601f0160208091040260200160405190810160405280929190818152602001828054612a709061391c565b8015612abd5780601f10612a9257610100808354040283529160200191612abd565b820191906000526020600020905b815481529060010190602001808311612aa057829003601f168201915b5050505050908060050154905086565b60606000821415612b15576040518060400160405280600181526020017f30000000000000000000000000000000000000000000000000000000000000008152509050612c75565b600082905060005b60008214612b47578080612b309061394e565b915050600a82612b40919061386b565b9150612b1d565b60008167ffffffffffffffff811115612b89577f4e487b7100000000000000000000000000000000000000000000000000000000600052604160045260246000fd5b6040519080825280601f01601f191660200182016040528015612bbb5781602001600182028036833780820191505090505b5090505b60008514612c6e57600182612bd4919061389c565b9150600a85612be39190613997565b6030612bef9190613815565b60f81b818381518110612c2b577f4e487b7100000000000000000000000000000000000000000000000000000000600052603260045260246000fd5b60200101907effffffffffffffffffffffffffffffffffffffffffffffffffffffffffffff1916908160001a905350600a85612c67919061386b565b9450612bbf565b8093505050505b919050565b828054612c869061391c565b90600052602060002090601f016020900481019282612ca85760008555612cef565b82601f10612cc157805160ff1916838001178555612cef565b82800160010185558215612cef579182015b82811115612cee578251825591602001919060010190612cd3565b5b509050612cfc9190612e23565b5090565b828054612d0c9061391c565b90600052602060002090601f016020900481019282612d2e5760008555612d7c565b82601f10612d3f5780548555612d7c565b82800160010185558215612d7c57600052602060002091601f016020900482015b82811115612d7b578254825591600101919060010190612d60565b5b509050612d899190612e23565b5090565b508054612d999061391c565b6000825580601f10612dab5750612dca565b601f016020900490600052602060002090810190612dc99190612e23565b5b50565b60405180608001604052806004905b6060815260200190600190039081612ddc5790505090565b6040518060a0016040528060608152602001606081526020016000815260200160008152602001600081525090565b5b80821115612e3c576000816000905550600101612e24565b5090565b6000612e53612e4e846136d5565b6136a4565b905082815260208101848484011115612e6b57600080fd5b612e768482856138da565b509392505050565b600082601f830112612e8f57600080fd5b8135612e9f848260208601612e40565b91505092915050565b600081359050612eb781613a95565b92915050565b600060208284031215612ecf57600080fd5b600082013567ffffffffffffffff811115612ee957600080fd5b612ef584828501612e7e565b91505092915050565b60008060008060808587031215612f1457600080fd5b600085013567ffffffffffffffff811115612f2e57600080fd5b612f3a87828801612e7e565b945050602085013567ffffffffffffffff811115612f5757600080fd5b612f6387828801612e7e565b935050604085013567ffffffffffffffff811115612f8057600080fd5b612f8c87828801612e7e565b925050606085013567ffffffffffffffff811115612fa957600080fd5b612fb587828801612e7e565b91505092959194509250565b60008060408385031215612fd457600080fd5b600083013567ffffffffffffffff811115612fee57600080fd5b612ffa85828601612e7e565b925050602061300b85828601612ea8565b9150509250929050565b60008060006060848603121561302a57600080fd5b600084013567ffffffffffffffff81111561304457600080fd5b61305086828701612e7e565b935050602061306186828701612ea8565b925050604084013567ffffffffffffffff81111561307e57600080fd5b61308a86828701612e7e565b9150509250925092565b6000602082840312156130a657600080fd5b60006130b484828501612ea8565b91505092915050565b600080604083850312156130d057600080fd5b60006130de85828601612ea8565b925050602083013567ffffffffffffffff8111156130fb57600080fd5b61310785828601612e7e565b9150509250929050565b600061311d838361330e565b905092915050565b60006131318383613431565b905092915050565b600061314583836134ae565b60208301905092915050565b600061315c8261373f565b61316681856137aa565b93508360208202850161317885613705565b8060005b858110156131b457848403895281516131958582613111565b94506131a083613776565b925060208a0199505060018101905061317c565b50829750879550505050505092915050565b60006131d18261374a565b6131db81856137b5565b9350836020820285016131ed8561370f565b8060005b85811015613229578484038952815161320a8582613111565b945061321583613783565b925060208a019950506001810190506131f1565b50829750879550505050505092915050565b600061324682613755565b61325081856137c6565b9350836020820285016132628561371f565b8060005b8581101561329e578484038952815161327f8582613125565b945061328a83613790565b925060208a01995050600181019050613266565b50829750879550505050505092915050565b60006132bb82613760565b6132c581856137d7565b93506132d08361372f565b8060005b838110156133015781516132e88882613139565b97506132f38361379d565b9250506001810190506132d4565b5085935050505092915050565b60006133198261376b565b61332381856137e8565b93506133338185602086016138e9565b61333c81613a84565b840191505092915050565b60006133528261376b565b61335c81856137f9565b935061336c8185602086016138e9565b61337581613a84565b840191505092915050565b600061338b8261376b565b613395818561380a565b93506133a58185602086016138e9565b80840191505092915050565b60006133be6009836137f9565b91507f4e6f742076616c696400000000000000000000000000000000000000000000006000830152602082019050919050565b60006133fe6011836137f9565b91507f596f7520617265206e6f74206f776e65720000000000000000000000000000006000830152602082019050919050565b600060a083016000830151848203600086015261344e828261330e565b91505060208301518482036020860152613468828261330e565b915050604083015161347d60408601826134ae565b50606083015161349060608601826134ae565b5060808301516134a360808601826134ae565b508091505092915050565b6134b7816138d0565b82525050565b6134c6816138d0565b82525050565b60006134d88284613380565b915081905092915050565b600060208201905081810360008301526134fd8184613151565b905092915050565b6000602082019050818103600083015261351f81846131c6565b905092915050565b60006020820190508181036000830152613541818461323b565b905092915050565b6000602082019050818103600083015261356381846132b0565b905092915050565b600060a08201905081810360008301526135858188613347565b905081810360208301526135998187613347565b90506135a860408301866134bd565b6135b560608301856134bd565b6135c260808301846134bd565b9695505050505050565b600060208201905081810360008301526135e5816133b1565b9050919050565b60006020820190508181036000830152613605816133f1565b9050919050565b600060208201905061362160008301846134bd565b92915050565b600060c08201905061363c60008301896134bd565b818103602083015261364e8188613347565b905081810360408301526136628187613347565b905081810360608301526136768186613347565b9050818103608083015261368a8185613347565b905061369960a08301846134bd565b979650505050505050565b6000604051905081810181811067ffffffffffffffff821117156136cb576136ca613a55565b5b8060405250919050565b600067ffffffffffffffff8211156136f0576136ef613a55565b5b601f19601f8301169050602081019050919050565b6000819050919050565b6000819050602082019050919050565b6000819050602082019050919050565b6000819050602082019050919050565b600060049050919050565b600081519050919050565b600081519050919050565b600081519050919050565b600081519050919050565b6000602082019050919050565b6000602082019050919050565b6000602082019050919050565b6000602082019050919050565b600081905092915050565b600082825260208201905092915050565b600082825260208201905092915050565b600082825260208201905092915050565b600082825260208201905092915050565b600082825260208201905092915050565b600081905092915050565b6000613820826138d0565b915061382b836138d0565b9250827fffffffffffffffffffffffffffffffffffffffffffffffffffffffffffffffff038211156138605761385f6139c8565b5b828201905092915050565b6000613876826138d0565b9150613881836138d0565b925082613891576138906139f7565b5b828204905092915050565b60006138a7826138d0565b91506138b2836138d0565b9250828210156138c5576138c46139c8565b5b828203905092915050565b6000819050919050565b82818337600083830152505050565b60005b838110156139075780820151818401526020810190506138ec565b83811115613916576000848401525b50505050565b6000600282049050600182168061393457607f821691505b6020821081141561394857613947613a26565b5b50919050565b6000613959826138d0565b91507fffffffffffffffffffffffffffffffffffffffffffffffffffffffffffffffff82141561398c5761398b6139c8565b5b600182019050919050565b60006139a2826138d0565b91506139ad836138d0565b9250826139bd576139bc6139f7565b5b828206905092915050565b7f4e487b7100000000000000000000000000000000000000000000000000000000600052601160045260246000fd5b7f4e487b7100000000000000000000000000000000000000000000000000000000600052601260045260246000fd5b7f4e487b7100000000000000000000000000000000000000000000000000000000600052602260045260246000fd5b7f4e487b7100000000000000000000000000000000000000000000000000000000600052604160045260246000fd5b6000601f19601f8301169050919050565b613a9e816138d0565b8114613aa957600080fd5b5056fea2646970667358221220cbdbd99aac8ba63c790be759c13be5514b55c7e61e7e31f41829f2149bea309e64736f6c63430008000033",
  "linkReferences": {},
  "deployedLinkReferences": {}
}