{
  "_format": "hh-sol-artifact-1",
  "contractName": "ElectionPortal",
  "sourceName": "contracts/ElectionPortal.sol",
  "abi": [
    {
      "inputs": [],
      "stateMutability": "nonpayable",
      "type": "constructor"
    },
    {
      "inputs": [
        {
          "internalType": "string",
          "name": "_name",
          "type": "string"
        },
        {
          "internalType": "string",
          "name": "_agendas",
          "type": "string"
        },
        {
          "internalType": "string",
          "name": "_imageLink",
          "type": "string"
        },
        {
          "internalType": "string",
          "name": "_punchline",
          "type": "string"
        }
      ],
      "name": "addCandidate",
      "outputs": [],
      "stateMutability": "payable",
      "type": "function"
    },
    {
      "inputs": [
        {
          "internalType": "string",
          "name": "_id",
          "type": "string"
        },
        {
          "internalType": "uint256",
          "name": "_endtime",
          "type": "uint256"
        },
        {
          "internalType": "string",
          "name": "_position",
          "type": "string"
        }
      ],
      "name": "addElection",
      "outputs": [],
      "stateMutability": "payable",
      "type": "function"
    },
    {
      "inputs": [],
      "name": "deleteCandidatesList",
      "outputs": [],
      "stateMutability": "payable",
      "type": "function"
    },
    {
      "inputs": [],
      "name": "deleteElections",
      "outputs": [],
      "stateMutability": "payable",
      "type": "function"
    },
    {
      "inputs": [
        {
          "internalType": "uint256",
          "name": "",
          "type": "uint256"
        }
      ],
      "name": "electionCandidates",
      "outputs": [
        {
          "internalType": "uint256",
          "name": "id",
          "type": "uint256"
        },
        {
          "internalType": "string",
          "name": "name",
          "type": "string"
        },
        {
          "internalType": "string",
          "name": "agendas",
          "type": "string"
        },
        {
          "internalType": "string",
          "name": "punchline",
          "type": "string"
        },
        {
          "internalType": "string",
          "name": "imageLink",
          "type": "string"
        },
        {
          "internalType": "uint256",
          "name": "votes",
          "type": "uint256"
        }
      ],
      "stateMutability": "view",
      "type": "function"
    },
    {
      "inputs": [],
      "name": "electionCount",
      "outputs": [
        {
          "internalType": "uint256",
          "name": "",
          "type": "uint256"
        }
      ],
      "stateMutability": "view",
      "type": "function"
    },
    {
      "inputs": [
        {
          "internalType": "uint256",
          "name": "",
          "type": "uint256"
        }
      ],
      "name": "elections",
      "outputs": [
        {
          "internalType": "string",
          "name": "id",
          "type": "string"
        },
        {
          "internalType": "string",
          "name": "position",
          "type": "string"
        },
        {
          "internalType": "uint256",
          "name": "endtime",
          "type": "uint256"
        },
        {
          "internalType": "uint256",
          "name": "votes",
          "type": "uint256"
        },
        {
          "internalType": "uint256",
          "name": "totalCandidates",
          "type": "uint256"
        }
      ],
      "stateMutability": "view",
      "type": "function"
    },
    {
      "inputs": [
        {
          "internalType": "uint256",
          "name": "candidateID",
          "type": "uint256"
        },
        {
          "internalType": "string",
          "name": "electionID",
          "type": "string"
        }
      ],
      "name": "getCandidateDetails",
      "outputs": [
        {
          "internalType": "string[4]",
          "name": "",
          "type": "string[4]"
        }
      ],
      "stateMutability": "view",
      "type": "function"
    },
    {
      "inputs": [
        {
          "internalType": "string",
          "name": "electionID",
          "type": "string"
        }
      ],
      "name": "getElectionCandidatesNames",
      "outputs": [
        {
          "internalType": "string[]",
          "name": "",
          "type": "string[]"
        }
      ],
      "stateMutability": "view",
      "type": "function"
    },
    {
      "inputs": [
        {
          "internalType": "string",
          "name": "electionID",
          "type": "string"
        }
      ],
      "name": "getElectionCandidatesVotes",
      "outputs": [
        {
          "internalType": "uint256[]",
          "name": "",
          "type": "uint256[]"
        }
      ],
      "stateMutability": "view",
      "type": "function"
    },
    {
      "inputs": [
        {
          "internalType": "string",
          "name": "electionID",
          "type": "string"
        }
      ],
      "name": "getElectionDetails",
      "outputs": [
        {
          "internalType": "string[3]",
          "name": "",
          "type": "string[3]"
        }
      ],
      "stateMutability": "view",
      "type": "function"
    },
    {
      "inputs": [
        {
          "internalType": "string",
          "name": "electionID",
          "type": "string"
        }
      ],
      "name": "getElectionEndTime",
      "outputs": [
        {
          "internalType": "uint256",
          "name": "",
          "type": "uint256"
        }
      ],
      "stateMutability": "view",
      "type": "function"
    },
    {
      "inputs": [],
      "name": "getElectionInfo",
      "outputs": [
        {
          "components": [
            {
              "internalType": "string",
              "name": "id",
              "type": "string"
            },
            {
              "internalType": "string",
              "name": "position",
              "type": "string"
            },
            {
              "internalType": "uint256",
              "name": "endtime",
              "type": "uint256"
            },
            {
              "internalType": "uint256",
              "name": "votes",
              "type": "uint256"
            },
            {
              "internalType": "uint256",
              "name": "totalCandidates",
              "type": "uint256"
            }
          ],
          "internalType": "struct ElectionPortal.ElectionInfo[]",
          "name": "",
          "type": "tuple[]"
        }
      ],
      "stateMutability": "view",
      "type": "function"
    },
    {
      "inputs": [
        {
          "internalType": "string",
          "name": "electionID",
          "type": "string"
        }
      ],
      "name": "getElectionWinner",
      "outputs": [
        {
          "internalType": "string[]",
          "name": "",
          "type": "string[]"
        }
      ],
      "stateMutability": "view",
      "type": "function"
    },
    {
      "inputs": [
        {
          "internalType": "string",
          "name": "electionID",
          "type": "string"
        },
        {
          "internalType": "uint256",
          "name": "candidateID",
          "type": "uint256"
        }
      ],
      "name": "incrVote",
      "outputs": [],
      "stateMutability": "payable",
      "type": "function"
    }
  ],
  "bytecode": "0x6080604052600060035534801561001557600080fd5b50336000806101000a81548173ffffffffffffffffffffffffffffffffffffffff021916908373ffffffffffffffffffffffffffffffffffffffff160217905550614122806100656000396000f3fe6080604052600436106100e85760003560e01c8063817f85761161008a5780639f9157f6116100595780639f9157f6146102c4578063b43bed4814610301578063d09aaa5b1461033e578063e64ae4bd1461035a576100e8565b8063817f85761461022757806386852dca14610231578063928cb52e1461025c578063997d283014610299576100e8565b80634b7d7bd5116100c65780634b7d7bd51461016257806355695e891461019f5780635e6fef01146101a9578063689aa33d146101ea576100e8565b80632369b70e146100ed5780633358139c1461012a57806342b03cc914610146575b600080fd5b3480156100f957600080fd5b50610114600480360381019061010f9190613439565b61039c565b6040516101219190613b5c565b60405180910390f35b610144600480360381019061013f9190613591565b61063d565b005b610160600480360381019061015b919061347a565b610ab7565b005b34801561016e57600080fd5b5061018960048036038101906101849190613439565b610d49565b6040516101969190613b18565b60405180910390f35b6101a76110bb565b005b3480156101b557600080fd5b506101d060048036038101906101cb9190613610565b611200565b6040516101e1959493929190613b7e565b60405180910390f35b3480156101f657600080fd5b50610211600480360381019061020c9190613639565b611356565b60405161021e9190613af6565b60405180910390f35b61022f611856565b005b34801561023d57600080fd5b5061024661198b565b6040516102539190613b3a565b60405180910390f35b34801561026857600080fd5b50610283600480360381019061027e9190613439565b611dc1565b6040516102909190613ad4565b60405180910390f35b3480156102a557600080fd5b506102ae61211e565b6040516102bb9190613c1f565b60405180910390f35b3480156102d057600080fd5b506102eb60048036038101906102e69190613439565b612124565b6040516102f89190613c1f565b60405180910390f35b34801561030d57600080fd5b5061032860048036038101906103239190613439565b61227c565b6040516103359190613b18565b60405180910390f35b6103586004803603810190610353919061353d565b612bfc565b005b34801561036657600080fd5b50610381600480360381019061037c9190613610565b612db6565b60405161039396959493929190613c3a565b60405180910390f35b606060008054906101000a900473ffffffffffffffffffffffffffffffffffffffff1673ffffffffffffffffffffffffffffffffffffffff163373ffffffffffffffffffffffffffffffffffffffff161461042c576040517f08c379a000000000000000000000000000000000000000000000000000000000815260040161042390613bff565b60405180910390fd5b600060016002846040516104409190613abd565b9081526020016040518091039020546104599190613edc565b9050600081101561049f576040517f08c379a000000000000000000000000000000000000000000000000000000000815260040161049690613bdf565b60405180910390fd5b6000600182815481106104db577f4e487b7100000000000000000000000000000000000000000000000000000000600052603260045260246000fd5b906000526020600020906006020160050154905060008167ffffffffffffffff811115610531577f4e487b7100000000000000000000000000000000000000000000000000000000600052604160045260246000fd5b60405190808252806020026020018201604052801561055f5781602001602082028036833780820191505090505b50905060005b8281101561063157600184815481106105a7577f4e487b7100000000000000000000000000000000000000000000000000000000600052603260045260246000fd5b906000526020600020906006020160010160006001836105c79190613e55565b815260200190815260200160002060050154828281518110610612577f4e487b7100000000000000000000000000000000000000000000000000000000600052603260045260246000fd5b602002602001018181525050808061062990613f8e565b915050610565565b50809350505050919050565b60008054906101000a900473ffffffffffffffffffffffffffffffffffffffff1673ffffffffffffffffffffffffffffffffffffffff163373ffffffffffffffffffffffffffffffffffffffff16146106cb576040517f08c379a00000000000000000000000000000000000000000000000000000000081526004016106c290613bff565b60405180910390fd5b600180816001815401808255809150500390600052602060002090505082600160035481548110610725577f4e487b7100000000000000000000000000000000000000000000000000000000600052603260045260246000fd5b906000526020600020906006020160000190805190602001906107499291906131cf565b5060005b6004805490508110156108b65760048181548110610794577f4e487b7100000000000000000000000000000000000000000000000000000000600052603260045260246000fd5b90600052602060002090600602016001600354815481106107de577f4e487b7100000000000000000000000000000000000000000000000000000000600052603260045260246000fd5b906000526020600020906006020160010160006001846107fe9190613e55565b815260200190815260200160002060008201548160000155600182018160010190805461082a90613f5c565b610835929190613255565b50600282018160020190805461084a90613f5c565b610855929190613255565b50600382018160030190805461086a90613f5c565b610875929190613255565b50600482018160040190805461088a90613f5c565b610895929190613255565b506005820154816005015590505080806108ae90613f8e565b91505061074d565b50806001600354815481106108f4577f4e487b7100000000000000000000000000000000000000000000000000000000600052603260045260246000fd5b906000526020600020906006020160020190805190602001906109189291906131cf565b5081600160035481548110610956577f4e487b7100000000000000000000000000000000000000000000000000000000600052603260045260246000fd5b9060005260206000209060060201600301819055506004805490506001600354815481106109ad577f4e487b7100000000000000000000000000000000000000000000000000000000600052603260045260246000fd5b9060005260206000209060060201600501819055506003600081546109d190613f8e565b919050819055506003546002846040516109eb9190613abd565b9081526020016040518091039020819055505b60006004805490501115610ab2576004805480610a44577f4e487b7100000000000000000000000000000000000000000000000000000000600052603160045260246000fd5b6001900381819060005260206000209060060201600080820160009055600182016000610a7191906132e2565b600282016000610a8191906132e2565b600382016000610a9191906132e2565b600482016000610aa191906132e2565b6005820160009055505090556109fe565b505050565b60008054906101000a900473ffffffffffffffffffffffffffffffffffffffff1673ffffffffffffffffffffffffffffffffffffffff163373ffffffffffffffffffffffffffffffffffffffff1614610b45576040517f08c379a0000000000000000000000000000000000000000000000000000000008152600401610b3c90613bff565b60405180910390fd5b6000600480549050905060046001816001815401808255809150500390600052602060002090505060048054905060048281548110610bad577f4e487b7100000000000000000000000000000000000000000000000000000000600052603260045260246000fd5b9060005260206000209060060201600001819055508460048281548110610bfd577f4e487b7100000000000000000000000000000000000000000000000000000000600052603260045260246000fd5b90600052602060002090600602016001019080519060200190610c219291906131cf565b508360048281548110610c5d577f4e487b7100000000000000000000000000000000000000000000000000000000600052603260045260246000fd5b90600052602060002090600602016002019080519060200190610c819291906131cf565b508260048281548110610cbd577f4e487b7100000000000000000000000000000000000000000000000000000000600052603260045260246000fd5b90600052602060002090600602016004019080519060200190610ce19291906131cf565b508160048281548110610d1d577f4e487b7100000000000000000000000000000000000000000000000000000000600052603260045260246000fd5b90600052602060002090600602016003019080519060200190610d419291906131cf565b505050505050565b606060008054906101000a900473ffffffffffffffffffffffffffffffffffffffff1673ffffffffffffffffffffffffffffffffffffffff163373ffffffffffffffffffffffffffffffffffffffff1614610dd9576040517f08c379a0000000000000000000000000000000000000000000000000000000008152600401610dd090613bff565b60405180910390fd5b60006001600284604051610ded9190613abd565b908152602001604051809103902054610e069190613edc565b90506000811015610e4c576040517f08c379a0000000000000000000000000000000000000000000000000000000008152600401610e4390613bdf565b60405180910390fd5b600060018281548110610e88577f4e487b7100000000000000000000000000000000000000000000000000000000600052603260045260246000fd5b90600052602060002090600602016005015467ffffffffffffffff811115610ed9577f4e487b7100000000000000000000000000000000000000000000000000000000600052604160045260246000fd5b604051908082528060200260200182016040528015610f0c57816020015b6060815260200190600190039081610ef75790505b50905060005b60018381548110610f4c577f4e487b7100000000000000000000000000000000000000000000000000000000600052603260045260246000fd5b9060005260206000209060060201600501548110156110b05760018381548110610f9f577f4e487b7100000000000000000000000000000000000000000000000000000000600052603260045260246000fd5b90600052602060002090600602016001016000600183610fbf9190613e55565b81526020019081526020016000206001018054610fdb90613f5c565b80601f016020809104026020016040519081016040528092919081815260200182805461100790613f5c565b80156110545780601f1061102957610100808354040283529160200191611054565b820191906000526020600020905b81548152906001019060200180831161103757829003601f168201915b5050505050828281518110611092577f4e487b7100000000000000000000000000000000000000000000000000000000600052603260045260246000fd5b602002602001018190525080806110a890613f8e565b915050610f12565b508092505050919050565b60008054906101000a900473ffffffffffffffffffffffffffffffffffffffff1673ffffffffffffffffffffffffffffffffffffffff163373ffffffffffffffffffffffffffffffffffffffff1614611149576040517f08c379a000000000000000000000000000000000000000000000000000000000815260040161114090613bff565b60405180910390fd5b5b600060048054905011156111fe576004805480611190577f4e487b7100000000000000000000000000000000000000000000000000000000600052603160045260246000fd5b60019003818190600052602060002090600602016000808201600090556001820160006111bd91906132e2565b6002820160006111cd91906132e2565b6003820160006111dd91906132e2565b6004820160006111ed91906132e2565b60058201600090555050905561114a565b565b6001818154811061121057600080fd5b906000526020600020906006020160009150905080600001805461123390613f5c565b80601f016020809104026020016040519081016040528092919081815260200182805461125f90613f5c565b80156112ac5780601f10611281576101008083540402835291602001916112ac565b820191906000526020600020905b81548152906001019060200180831161128f57829003601f168201915b5050505050908060020180546112c190613f5c565b80601f01602080910402602001604051908101604052809291908181526020018280546112ed90613f5c565b801561133a5780601f1061130f5761010080835404028352916020019161133a565b820191906000526020600020905b81548152906001019060200180831161131d57829003601f168201915b5050505050908060030154908060040154908060050154905085565b61135e613322565b60008054906101000a900473ffffffffffffffffffffffffffffffffffffffff1673ffffffffffffffffffffffffffffffffffffffff163373ffffffffffffffffffffffffffffffffffffffff16146113ec576040517f08c379a00000000000000000000000000000000000000000000000000000000081526004016113e390613bff565b60405180910390fd5b600060016002846040516114009190613abd565b9081526020016040518091039020546114199190613edc565b9050600081101561145f576040517f08c379a000000000000000000000000000000000000000000000000000000000815260040161145690613bdf565b60405180910390fd5b60006001828154811061149b577f4e487b7100000000000000000000000000000000000000000000000000000000600052603260045260246000fd5b906000526020600020906006020160010160008681526020019081526020016000206040518060c0016040529081600082015481526020016001820180546114e290613f5c565b80601f016020809104026020016040519081016040528092919081815260200182805461150e90613f5c565b801561155b5780601f106115305761010080835404028352916020019161155b565b820191906000526020600020905b81548152906001019060200180831161153e57829003601f168201915b5050505050815260200160028201805461157490613f5c565b80601f01602080910402602001604051908101604052809291908181526020018280546115a090613f5c565b80156115ed5780601f106115c2576101008083540402835291602001916115ed565b820191906000526020600020905b8154815290600101906020018083116115d057829003601f168201915b5050505050815260200160038201805461160690613f5c565b80601f016020809104026020016040519081016040528092919081815260200182805461163290613f5c565b801561167f5780601f106116545761010080835404028352916020019161167f565b820191906000526020600020905b81548152906001019060200180831161166257829003601f168201915b5050505050815260200160048201805461169890613f5c565b80601f01602080910402602001604051908101604052809291908181526020018280546116c490613f5c565b80156117115780601f106116e657610100808354040283529160200191611711565b820191906000526020600020905b8154815290600101906020018083116116f457829003601f168201915b50505050508152602001600582015481525050905061172e613322565b81602001518160006004811061176d577f4e487b7100000000000000000000000000000000000000000000000000000000600052603260045260246000fd5b60200201819052508160400151816001600481106117b4577f4e487b7100000000000000000000000000000000000000000000000000000000600052603260045260246000fd5b60200201819052508160600151816002600481106117fb577f4e487b7100000000000000000000000000000000000000000000000000000000600052603260045260246000fd5b6020020181905250816080015181600360048110611842577f4e487b7100000000000000000000000000000000000000000000000000000000600052603260045260246000fd5b602002018190525080935050505092915050565b60008054906101000a900473ffffffffffffffffffffffffffffffffffffffff1673ffffffffffffffffffffffffffffffffffffffff163373ffffffffffffffffffffffffffffffffffffffff16146118e4576040517f08c379a00000000000000000000000000000000000000000000000000000000081526004016118db90613bff565b60405180910390fd5b5b6000600180549050111561198157600180548061192b577f4e487b7100000000000000000000000000000000000000000000000000000000600052603160045260246000fd5b60019003818190600052602060002090600602016000808201600061195091906132e2565b60028201600061196091906132e2565b600382016000905560048201600090556005820160009055505090556118e5565b6000600381905550565b606060008054906101000a900473ffffffffffffffffffffffffffffffffffffffff1673ffffffffffffffffffffffffffffffffffffffff163373ffffffffffffffffffffffffffffffffffffffff1614611a1b576040517f08c379a0000000000000000000000000000000000000000000000000000000008152600401611a1290613bff565b60405180910390fd5b600060018054905067ffffffffffffffff811115611a62577f4e487b7100000000000000000000000000000000000000000000000000000000600052604160045260246000fd5b604051908082528060200260200182016040528015611a9b57816020015b611a88613349565b815260200190600190039081611a805790505b50905060005b600180549050811015611db95760006040518060a0016040528060018481548110611af5577f4e487b7100000000000000000000000000000000000000000000000000000000600052603260045260246000fd5b90600052602060002090600602016000018054611b1190613f5c565b80601f0160208091040260200160405190810160405280929190818152602001828054611b3d90613f5c565b8015611b8a5780601f10611b5f57610100808354040283529160200191611b8a565b820191906000526020600020905b815481529060010190602001808311611b6d57829003601f168201915b5050505050815260200160018481548110611bce577f4e487b7100000000000000000000000000000000000000000000000000000000600052603260045260246000fd5b90600052602060002090600602016002018054611bea90613f5c565b80601f0160208091040260200160405190810160405280929190818152602001828054611c1690613f5c565b8015611c635780601f10611c3857610100808354040283529160200191611c63565b820191906000526020600020905b815481529060010190602001808311611c4657829003601f168201915b5050505050815260200160018481548110611ca7577f4e487b7100000000000000000000000000000000000000000000000000000000600052603260045260246000fd5b906000526020600020906006020160030154815260200160018481548110611cf8577f4e487b7100000000000000000000000000000000000000000000000000000000600052603260045260246000fd5b906000526020600020906006020160040154815260200160018481548110611d49577f4e487b7100000000000000000000000000000000000000000000000000000000600052603260045260246000fd5b906000526020600020906006020160050154815250905080838381518110611d9a577f4e487b7100000000000000000000000000000000000000000000000000000000600052603260045260246000fd5b6020026020010181905250508080611db190613f8e565b915050611aa1565b508091505090565b611dc9613378565b60008054906101000a900473ffffffffffffffffffffffffffffffffffffffff1673ffffffffffffffffffffffffffffffffffffffff163373ffffffffffffffffffffffffffffffffffffffff1614611e57576040517f08c379a0000000000000000000000000000000000000000000000000000000008152600401611e4e90613bff565b60405180910390fd5b60006001600284604051611e6b9190613abd565b908152602001604051809103902054611e849190613edc565b90506000811015611eca576040517f08c379a0000000000000000000000000000000000000000000000000000000008152600401611ec190613bdf565b60405180910390fd5b611ed2613378565b60018281548110611f0c577f4e487b7100000000000000000000000000000000000000000000000000000000600052603260045260246000fd5b90600052602060002090600602016002018054611f2890613f5c565b80601f0160208091040260200160405190810160405280929190818152602001828054611f5490613f5c565b8015611fa15780601f10611f7657610100808354040283529160200191611fa1565b820191906000526020600020905b815481529060010190602001808311611f8457829003601f168201915b505050505081600060038110611fe0577f4e487b7100000000000000000000000000000000000000000000000000000000600052603260045260246000fd5b602002018190525061203c60018381548110612025577f4e487b7100000000000000000000000000000000000000000000000000000000600052603260045260246000fd5b906000526020600020906006020160030154613022565b81600160038110612076577f4e487b7100000000000000000000000000000000000000000000000000000000600052603260045260246000fd5b60200201819052506120d2600183815481106120bb577f4e487b7100000000000000000000000000000000000000000000000000000000600052603260045260246000fd5b906000526020600020906006020160050154613022565b8160026003811061210c577f4e487b7100000000000000000000000000000000000000000000000000000000600052603260045260246000fd5b60200201819052508092505050919050565b60035481565b60008060009054906101000a900473ffffffffffffffffffffffffffffffffffffffff1673ffffffffffffffffffffffffffffffffffffffff163373ffffffffffffffffffffffffffffffffffffffff16146121b5576040517f08c379a00000000000000000000000000000000000000000000000000000000081526004016121ac90613bff565b60405180910390fd5b600060016002846040516121c99190613abd565b9081526020016040518091039020546121e29190613edc565b90506000811015612228576040517f08c379a000000000000000000000000000000000000000000000000000000000815260040161221f90613bdf565b60405180910390fd5b60018181548110612262577f4e487b7100000000000000000000000000000000000000000000000000000000600052603260045260246000fd5b906000526020600020906006020160030154915050919050565b606060008054906101000a900473ffffffffffffffffffffffffffffffffffffffff1673ffffffffffffffffffffffffffffffffffffffff163373ffffffffffffffffffffffffffffffffffffffff161461230c576040517f08c379a000000000000000000000000000000000000000000000000000000000815260040161230390613bff565b60405180910390fd5b600060016002846040516123209190613abd565b9081526020016040518091039020546123399190613edc565b9050600081101561237f576040517f08c379a000000000000000000000000000000000000000000000000000000000815260040161237690613bdf565b60405180910390fd5b6000600182815481106123bb577f4e487b7100000000000000000000000000000000000000000000000000000000600052603260045260246000fd5b90600052602060002090600602016001016000600181526020019081526020016000206040518060c00160405290816000820154815260200160018201805461240390613f5c565b80601f016020809104026020016040519081016040528092919081815260200182805461242f90613f5c565b801561247c5780601f106124515761010080835404028352916020019161247c565b820191906000526020600020905b81548152906001019060200180831161245f57829003601f168201915b5050505050815260200160028201805461249590613f5c565b80601f01602080910402602001604051908101604052809291908181526020018280546124c190613f5c565b801561250e5780601f106124e35761010080835404028352916020019161250e565b820191906000526020600020905b8154815290600101906020018083116124f157829003601f168201915b5050505050815260200160038201805461252790613f5c565b80601f016020809104026020016040519081016040528092919081815260200182805461255390613f5c565b80156125a05780601f10612575576101008083540402835291602001916125a0565b820191906000526020600020905b81548152906001019060200180831161258357829003601f168201915b505050505081526020016004820180546125b990613f5c565b80601f01602080910402602001604051908101604052809291908181526020018280546125e590613f5c565b80156126325780601f1061260757610100808354040283529160200191612632565b820191906000526020600020905b81548152906001019060200180831161261557829003601f168201915b5050505050815260200160058201548152505090506000600190505b60018381548110612688577f4e487b7100000000000000000000000000000000000000000000000000000000600052603260045260246000fd5b9060005260206000209060060201600501548110156129fd57600183815481106126db577f4e487b7100000000000000000000000000000000000000000000000000000000600052603260045260246000fd5b906000526020600020906006020160010160006001836126fb9190613e55565b8152602001908152602001600020600501548260a0015110156129ea5760018381548110612752577f4e487b7100000000000000000000000000000000000000000000000000000000600052603260045260246000fd5b906000526020600020906006020160010160006001836127729190613e55565b81526020019081526020016000206040518060c0016040529081600082015481526020016001820180546127a590613f5c565b80601f01602080910402602001604051908101604052809291908181526020018280546127d190613f5c565b801561281e5780601f106127f35761010080835404028352916020019161281e565b820191906000526020600020905b81548152906001019060200180831161280157829003601f168201915b5050505050815260200160028201805461283790613f5c565b80601f016020809104026020016040519081016040528092919081815260200182805461286390613f5c565b80156128b05780601f10612885576101008083540402835291602001916128b0565b820191906000526020600020905b81548152906001019060200180831161289357829003601f168201915b505050505081526020016003820180546128c990613f5c565b80601f01602080910402602001604051908101604052809291908181526020018280546128f590613f5c565b80156129425780601f1061291757610100808354040283529160200191612942565b820191906000526020600020905b81548152906001019060200180831161292557829003601f168201915b5050505050815260200160048201805461295b90613f5c565b80601f016020809104026020016040519081016040528092919081815260200182805461298790613f5c565b80156129d45780601f106129a9576101008083540402835291602001916129d4565b820191906000526020600020905b8154815290600101906020018083116129b757829003601f168201915b5050505050815260200160058201548152505091505b80806129f590613f8e565b91505061264e565b506000600567ffffffffffffffff811115612a41577f4e487b7100000000000000000000000000000000000000000000000000000000600052604160045260246000fd5b604051908082528060200260200182016040528015612a7457816020015b6060815260200190600190039081612a5f5790505b509050816020015181600081518110612ab6577f4e487b7100000000000000000000000000000000000000000000000000000000600052603260045260246000fd5b6020026020010181905250816040015181600181518110612b00577f4e487b7100000000000000000000000000000000000000000000000000000000600052603260045260246000fd5b6020026020010181905250816060015181600281518110612b4a577f4e487b7100000000000000000000000000000000000000000000000000000000600052603260045260246000fd5b6020026020010181905250816080015181600381518110612b94577f4e487b7100000000000000000000000000000000000000000000000000000000600052603260045260246000fd5b6020026020010181905250612bac8260a00151613022565b81600481518110612be6577f4e487b7100000000000000000000000000000000000000000000000000000000600052603260045260246000fd5b6020026020010181905250809350505050919050565b60008054906101000a900473ffffffffffffffffffffffffffffffffffffffff1673ffffffffffffffffffffffffffffffffffffffff163373ffffffffffffffffffffffffffffffffffffffff1614612c8a576040517f08c379a0000000000000000000000000000000000000000000000000000000008152600401612c8190613bff565b60405180910390fd5b600180600284604051612c9d9190613abd565b908152602001604051809103902054612cb69190613edc565b81548110612ced577f4e487b7100000000000000000000000000000000000000000000000000000000600052603260045260246000fd5b906000526020600020906006020160010160008281526020019081526020016000206005016000815480929190612d2390613f8e565b9190505550600180600284604051612d3b9190613abd565b908152602001604051809103902054612d549190613edc565b81548110612d8b577f4e487b7100000000000000000000000000000000000000000000000000000000600052603260045260246000fd5b90600052602060002090600602016004016000815480929190612dad90613f8e565b91905055505050565b60048181548110612dc657600080fd5b9060005260206000209060060201600091509050806000015490806001018054612def90613f5c565b80601f0160208091040260200160405190810160405280929190818152602001828054612e1b90613f5c565b8015612e685780601f10612e3d57610100808354040283529160200191612e68565b820191906000526020600020905b815481529060010190602001808311612e4b57829003601f168201915b505050505090806002018054612e7d90613f5c565b80601f0160208091040260200160405190810160405280929190818152602001828054612ea990613f5c565b8015612ef65780601f10612ecb57610100808354040283529160200191612ef6565b820191906000526020600020905b815481529060010190602001808311612ed957829003601f168201915b505050505090806003018054612f0b90613f5c565b80601f0160208091040260200160405190810160405280929190818152602001828054612f3790613f5c565b8015612f845780601f10612f5957610100808354040283529160200191612f84565b820191906000526020600020905b815481529060010190602001808311612f6757829003601f168201915b505050505090806004018054612f9990613f5c565b80601f0160208091040260200160405190810160405280929190818152602001828054612fc590613f5c565b80156130125780601f10612fe757610100808354040283529160200191613012565b820191906000526020600020905b815481529060010190602001808311612ff557829003601f168201915b5050505050908060050154905086565b6060600082141561306a576040518060400160405280600181526020017f300000000000000000000000000000000000000000000000000000000000000081525090506131ca565b600082905060005b6000821461309c57808061308590613f8e565b915050600a826130959190613eab565b9150613072565b60008167ffffffffffffffff8111156130de577f4e487b7100000000000000000000000000000000000000000000000000000000600052604160045260246000fd5b6040519080825280601f01601f1916602001820160405280156131105781602001600182028036833780820191505090505b5090505b600085146131c3576001826131299190613edc565b9150600a856131389190613fd7565b60306131449190613e55565b60f81b818381518110613180577f4e487b7100000000000000000000000000000000000000000000000000000000600052603260045260246000fd5b60200101907effffffffffffffffffffffffffffffffffffffffffffffffffffffffffffff1916908160001a905350600a856131bc9190613eab565b9450613114565b8093505050505b919050565b8280546131db90613f5c565b90600052602060002090601f0160209004810192826131fd5760008555613244565b82601f1061321657805160ff1916838001178555613244565b82800160010185558215613244579182015b82811115613243578251825591602001919060010190613228565b5b509050613251919061339f565b5090565b82805461326190613f5c565b90600052602060002090601f01602090048101928261328357600085556132d1565b82601f1061329457805485556132d1565b828001600101855582156132d157600052602060002091601f016020900482015b828111156132d05782548255916001019190600101906132b5565b5b5090506132de919061339f565b5090565b5080546132ee90613f5c565b6000825580601f10613300575061331f565b601f01602090049060005260206000209081019061331e919061339f565b5b50565b60405180608001604052806004905b60608152602001906001900390816133315790505090565b6040518060a0016040528060608152602001606081526020016000815260200160008152602001600081525090565b60405180606001604052806003905b60608152602001906001900390816133875790505090565b5b808211156133b85760008160009055506001016133a0565b5090565b60006133cf6133ca84613ce8565b613cb7565b9050828152602081018484840111156133e757600080fd5b6133f2848285613f1a565b509392505050565b600082601f83011261340b57600080fd5b813561341b8482602086016133bc565b91505092915050565b600081359050613433816140d5565b92915050565b60006020828403121561344b57600080fd5b600082013567ffffffffffffffff81111561346557600080fd5b613471848285016133fa565b91505092915050565b6000806000806080858703121561349057600080fd5b600085013567ffffffffffffffff8111156134aa57600080fd5b6134b6878288016133fa565b945050602085013567ffffffffffffffff8111156134d357600080fd5b6134df878288016133fa565b935050604085013567ffffffffffffffff8111156134fc57600080fd5b613508878288016133fa565b925050606085013567ffffffffffffffff81111561352557600080fd5b613531878288016133fa565b91505092959194509250565b6000806040838503121561355057600080fd5b600083013567ffffffffffffffff81111561356a57600080fd5b613576858286016133fa565b925050602061358785828601613424565b9150509250929050565b6000806000606084860312156135a657600080fd5b600084013567ffffffffffffffff8111156135c057600080fd5b6135cc868287016133fa565b93505060206135dd86828701613424565b925050604084013567ffffffffffffffff8111156135fa57600080fd5b613606868287016133fa565b9150509250925092565b60006020828403121561362257600080fd5b600061363084828501613424565b91505092915050565b6000806040838503121561364c57600080fd5b600061365a85828601613424565b925050602083013567ffffffffffffffff81111561367757600080fd5b613683858286016133fa565b9150509250929050565b600061369983836138ff565b905092915050565b60006136ad8383613a22565b905092915050565b60006136c18383613a9f565b60208301905092915050565b60006136d882613d5c565b6136e28185613ddf565b9350836020820285016136f485613d18565b8060005b858110156137305784840389528151613711858261368d565b945061371c83613d9e565b925060208a019950506001810190506136f8565b50829750879550505050505092915050565b600061374d82613d67565b6137578185613dea565b93508360208202850161376985613d22565b8060005b858110156137a55784840389528151613786858261368d565b945061379183613dab565b925060208a0199505060018101905061376d565b50829750879550505050505092915050565b60006137c282613d72565b6137cc8185613df5565b9350836020820285016137de85613d2c565b8060005b8581101561381a57848403895281516137fb858261368d565b945061380683613db8565b925060208a019950506001810190506137e2565b50829750879550505050505092915050565b600061383782613d7d565b6138418185613e06565b93508360208202850161385385613d3c565b8060005b8581101561388f578484038952815161387085826136a1565b945061387b83613dc5565b925060208a01995050600181019050613857565b50829750879550505050505092915050565b60006138ac82613d88565b6138b68185613e17565b93506138c183613d4c565b8060005b838110156138f25781516138d988826136b5565b97506138e483613dd2565b9250506001810190506138c5565b5085935050505092915050565b600061390a82613d93565b6139148185613e28565b9350613924818560208601613f29565b61392d816140c4565b840191505092915050565b600061394382613d93565b61394d8185613e39565b935061395d818560208601613f29565b613966816140c4565b840191505092915050565b600061397c82613d93565b6139868185613e4a565b9350613996818560208601613f29565b80840191505092915050565b60006139af600983613e39565b91507f4e6f742076616c696400000000000000000000000000000000000000000000006000830152602082019050919050565b60006139ef601183613e39565b91507f596f7520617265206e6f74206f776e65720000000000000000000000000000006000830152602082019050919050565b600060a0830160008301518482036000860152613a3f82826138ff565b91505060208301518482036020860152613a5982826138ff565b9150506040830151613a6e6040860182613a9f565b506060830151613a816060860182613a9f565b506080830151613a946080860182613a9f565b508091505092915050565b613aa881613f10565b82525050565b613ab781613f10565b82525050565b6000613ac98284613971565b915081905092915050565b60006020820190508181036000830152613aee81846136cd565b905092915050565b60006020820190508181036000830152613b108184613742565b905092915050565b60006020820190508181036000830152613b3281846137b7565b905092915050565b60006020820190508181036000830152613b54818461382c565b905092915050565b60006020820190508181036000830152613b7681846138a1565b905092915050565b600060a0820190508181036000830152613b988188613938565b90508181036020830152613bac8187613938565b9050613bbb6040830186613aae565b613bc86060830185613aae565b613bd56080830184613aae565b9695505050505050565b60006020820190508181036000830152613bf8816139a2565b9050919050565b60006020820190508181036000830152613c18816139e2565b9050919050565b6000602082019050613c346000830184613aae565b92915050565b600060c082019050613c4f6000830189613aae565b8181036020830152613c618188613938565b90508181036040830152613c758187613938565b90508181036060830152613c898186613938565b90508181036080830152613c9d8185613938565b9050613cac60a0830184613aae565b979650505050505050565b6000604051905081810181811067ffffffffffffffff82111715613cde57613cdd614095565b5b8060405250919050565b600067ffffffffffffffff821115613d0357613d02614095565b5b601f19601f8301169050602081019050919050565b6000819050919050565b6000819050919050565b6000819050602082019050919050565b6000819050602082019050919050565b6000819050602082019050919050565b600060039050919050565b600060049050919050565b600081519050919050565b600081519050919050565b600081519050919050565b600081519050919050565b6000602082019050919050565b6000602082019050919050565b6000602082019050919050565b6000602082019050919050565b6000602082019050919050565b600081905092915050565b600081905092915050565b600082825260208201905092915050565b600082825260208201905092915050565b600082825260208201905092915050565b600082825260208201905092915050565b600082825260208201905092915050565b600081905092915050565b6000613e6082613f10565b9150613e6b83613f10565b9250827fffffffffffffffffffffffffffffffffffffffffffffffffffffffffffffffff03821115613ea057613e9f614008565b5b828201905092915050565b6000613eb682613f10565b9150613ec183613f10565b925082613ed157613ed0614037565b5b828204905092915050565b6000613ee782613f10565b9150613ef283613f10565b925082821015613f0557613f04614008565b5b828203905092915050565b6000819050919050565b82818337600083830152505050565b60005b83811015613f47578082015181840152602081019050613f2c565b83811115613f56576000848401525b50505050565b60006002820490506001821680613f7457607f821691505b60208210811415613f8857613f87614066565b5b50919050565b6000613f9982613f10565b91507fffffffffffffffffffffffffffffffffffffffffffffffffffffffffffffffff821415613fcc57613fcb614008565b5b600182019050919050565b6000613fe282613f10565b9150613fed83613f10565b925082613ffd57613ffc614037565b5b828206905092915050565b7f4e487b7100000000000000000000000000000000000000000000000000000000600052601160045260246000fd5b7f4e487b7100000000000000000000000000000000000000000000000000000000600052601260045260246000fd5b7f4e487b7100000000000000000000000000000000000000000000000000000000600052602260045260246000fd5b7f4e487b7100000000000000000000000000000000000000000000000000000000600052604160045260246000fd5b6000601f19601f8301169050919050565b6140de81613f10565b81146140e957600080fd5b5056fea2646970667358221220d6368e5017f12ced332ec1745c5ea48acbc538762bd524453ae6e1cab56be45c64736f6c63430008000033",
  "linkReferences": {},
  "deployedLinkReferences": {}
}